:100000000C942A000C9447000C9447000C94470071
:100010000C9447000C9447000C9447000C94470044
:100020000C9447000C9447000C9447000C94220B4E
:100030000C94C50A0C9447000C9447000C9447009C
:100040000C9447000C9447000C9447000C94470014
:100050000C94470011241FBECFE5D8E0DEBFCDBF12
:1000600010E0A0E6B0E0E8EDF8E102C005900D92E6
:10007000AC37B107D9F710E0ACE7B0E001C01D9292
:10008000A638B107E1F70E94780B0C946A0C0C9427
:100090000000EF92FF920F931F937B018C0120E0F1
:1000A00030E040E05FE40E94490388238CF0C801FF
:1000B000B70120E030E040E05FE40E94C1010E940F
:1000C000A9039B01AC01205030404040504806C07D
:1000D000C801B7010E94A9039B01AC01B901CA0183
:1000E0001F910F91FF90EF900895A0E0B0E0EBE733
:1000F000F0E00C94330CDC012B01FA019C9192305E
:1001000008F439C1EB018881823008F433C194309E
:1001100069F4843009F02FC111969C91119789815F
:10012000981709F428C1A4E7B0E025C1843009F488
:1001300021C18230A9F4923009F01DC19A01AD01AC
:1001400088E0EA010990AE01E90109929E0181501F
:10015000C1F7E201898111969C918923818308C1AD
:10016000923009F407C112962D903C901397EB0141
:100170008A819B811496AD90BD90CD90DC901797AD
:10018000EC80FD800E811F819101281B390BB90184
:1001900037FF04C066277727621B730B6032710537
:1001A0000CF061C0121613066CF537014801062EDB
:1001B00004C096948794779467940A94D2F721E0C8
:1001C00030E040E050E004C0220F331F441F551FB1
:1001D0006A95D2F721503040404050402E213F21B7
:1001E00040235123211531054105510521F021E01E
:1001F00030E040E050E079018A01E628F72808293C
:1002000019293CC0232BD1F1260E371E350146019A
:10021000062E04C096948794779467940A94D2F734
:1002200021E030E040E050E004C0220F331F441FC3
:10023000551F6A95D2F721503040404050402A2146
:100240003B214C215D21211531054105510521F04E
:1002500021E030E040E050E059016A01A628B728CB
:10026000C828D9280BC0821593052CF01C01AA249C
:10027000BB24650103C0EE24FF24870111969C91E5
:10028000D20111968C91981709F445C0992339F041
:10029000A80197012A193B094C095D0906C0A6016E
:1002A00095012E193F09400B510B57FD08C01182D3
:1002B0003382228224833583468357831DC081E0A5
:1002C00081833382228288279927DC01821B930B4A
:1002D000A40BB50B84839583A683B7830DC0220F2F
:1002E000331F441F551F24833583468357838281E0
:1002F000938101979383828324813581468157813D
:10030000DA01C9010197A109B1098F5F9F4FAF4F72
:10031000BF4328F30BC0918333822282EA0CFB1C7B
:100320000C1D1D1DE482F5820683178383E0808304
:10033000248135814681578157FF1AC0C901AA27F8
:1003400097FDA095BA2F81709070A070B0705695EF
:10035000479537952795822B932BA42BB52B848318
:100360009583A683B7838281938101969383828349
:10037000DF0101C0D201CD01CDB7DEB7E2E10C94BF
:100380004F0CA0E2B0E0E7ECF1E00C943F0C698385
:100390007A838B839C832D833E834F835887E9E048
:1003A000EE2EF12CEC0EFD1ECE010196B7010E943F
:1003B000D2048E010F5E1F4FCE010596B8010E9438
:1003C000D2048A8991E089278A8BC701B801AE01DE
:1003D000475E5F4F0E9475000E94FD03A096E6E015
:1003E0000C945B0CA0E2B0E0E8EFF1E00C943F0C61
:1003F00069837A838B839C832D833E834F835887C5
:10040000F9E0EF2EF12CEC0EFD1ECE010196B701A6
:100410000E94D2048E010F5E1F4FCE010596B801D7
:100420000E94D204C701B801AE01475E5F4F0E942F
:1004300075000E94FD03A096E6E00C945B0CA0E220
:10044000B0E0E5E2F2E00C94330C69837A838B83AD
:100450009C832D833E834F835887CE010196BE0136
:10046000675F7F4F0E94D204CE010596BE016F5E8A
:100470007F4F0E94D2049985923088F0898982301A
:10048000C8F0943019F4823051F404C0843029F457
:10049000923081F484E790E0C6C0923049F420E0C5
:1004A0009A858A89981321E02A87CE010996BBC0D4
:1004B000823049F420E09A858A89981321E02A8BBA
:1004C000CE014196B0C02D843E844F8458886D88FB
:1004D0007E888F88988CEE24FF248701AA24BB2471
:1004E000650140E050E060E070E0E0E0F0E0C10174
:1004F00081709070892BE9F0E60CF71C081D191D1E
:100500009A01AB012A0D3B1D4C1D5D1D80E090E062
:10051000A0E0B0E0E614F7040805190520F481E036
:1005200090E0A0E0B0E0BA01A901480F591F6A1F8E
:100530007B1FAA0CBB1CCC1CDD1C97FE08C081E0F5
:1005400090E0A0E0B0E0A82AB92ACA2ADB2A3196B6
:10055000E032F10549F0660C771C881C991C569412
:10056000479437942794C3CFFA85EA892B893C892D
:100570008B859C85280F391F2E5F3F4F17C0CA01FE
:1005800081709070892B61F016950795F794E79428
:1005900080E090E0A0E0B0E8E82AF92A0A2B1B2BC3
:1005A00076956795579547952F5F3F4F77FDE7CF36
:1005B0000CC0440F551F661F771F17FD4160EE0CDE
:1005C000FF1C001F111F21503040403090E05907A0
:1005D00090E0690790E4790760F32B8F3C8FDB0193
:1005E000CA018F779070A070B07080349105A1051A
:1005F000B10561F447FD0AC0E114F10401051105DC
:1006000029F0405C5F4F6F4F7F4F40781A8EFE1786
:1006100011F081E08A8F4D8F5E8F6F8F78A383E01A
:10062000898FCE0149960E94FD03A096E2E10C94C9
:100630004F0CA8E1B0E0EFE1F3E00C943F0C6983CC
:100640007A838B839C832D833E834F83588789E0F5
:10065000E82EF12CEC0EFD1ECE010196B7010E9492
:10066000D2048E010F5E1F4FCE010596B8010E9485
:10067000D2048985823040F08989823028F0C70110
:10068000B8010E944A0501C08FEF6896E6E00C941D
:100690005B0CA8E1B0E0EFE4F3E00C943F0C69835D
:1006A0007A838B839C832D833E834F83588789E095
:1006B000E82EF12CEC0EFD1ECE010196B7010E9432
:1006C000D2048E010F5E1F4FCE010596B8010E9425
:1006D000D2048985823040F08989823028F0C701B0
:1006E000B8010E944A0501C08FEF6896E6E00C94BD
:1006F0005B0CA8E1B0E0EFE7F3E00C943F0C6983FA
:100700007A838B839C832D833E834F83588789E034
:10071000E82EF12CEC0EFD1ECE010196B7010E94D1
:10072000D2048E010F5E1F4FCE010596B8010E94C4
:10073000D2048985823040F08989823028F0C7014F
:10074000B8010E944A0501C081E06896E6E00C9479
:100750005B0CACE0B0E0EFEAF3E00C94430C69838F
:100760007A838B839C83CE010196BE016B5F7F4FA2
:100770000E94D2048D81823061F1823050F1843048
:1007800021F48E81882351F12EC02F81388537FDC9
:1007900020C06E812F3131051CF06623F9F023C093
:1007A0008EE190E0821B930B29853A854B855C8511
:1007B00004C056954795379527958A95D2F76623B5
:1007C000B1F050954095309521953F4F4F4F5F4F79
:1007D0000EC020E030E040E050E009C02FEF3FEFD6
:1007E0004FEF5FE704C020E030E040E050E8B9019F
:1007F000CA012C96E2E00C945F0CDF92EF92FF921C
:100800000F931F93FC01E480F58006811781D1804E
:100810008081823048F480E090E0A0E1B0E0E82AF6
:10082000F92A0A2B1B2BA5C0843009F49FC0823003
:1008300021F4EE24FF24870105C0E114F104010531
:10084000110519F4E0E0F0E096C0628173819FEF3A
:10085000623879070CF05BC022E83FEF261B370BAC
:100860002A3131052CF020E030E040E050E02AC091
:10087000B801A701022E04C0769567955795479554
:100880000A94D2F781E090E0A0E0B0E004C0880FC5
:10089000991FAA1FBB1F2A95D2F70197A109B10979
:1008A0008E219F21A023B1230097A105B10521F03E
:1008B00081E090E0A0E0B0E09A01AB01282B392B59
:1008C0004A2B5B2BDA01C9018F779070A070B07052
:1008D00080349105A105B10539F427FF09C0205CDA
:1008E0003F4F4F4F5F4F04C0215C3F4F4F4F5F4F13
:1008F000E0E0F0E02030A0E03A07A0E04A07A0E402
:100900005A0710F0E1E0F0E079018A0127C0603871
:10091000710564F5FB01E158FF4FD801C7018F77DE
:100920009070A070B07080349105A105B10539F4C4
:10093000E7FE0DC080E490E0A0E0B0E004C08FE3EB
:1009400090E0A0E0B0E0E80EF91E0A1F1B1F17FFA1
:1009500005C016950795F794E794319687E01695AC
:100960000795F794E7948A95D1F705C0EE24FF2404
:100970008701EFEFF0E06E2F679566276795902F60
:100980009F77D794DD24D7948E2F8695492F462BB9
:10099000582F5D29B701CA011F910F91FF90EF9069
:1009A000DF900895FC01DB01408151812281622F9B
:1009B0006F7770E0221F2227221F9381892F880FD3
:1009C000822B282F30E0991F9927991F11969C930D
:1009D000119721153105A9F54115510561057105DD
:1009E00011F482E037C082E89FEF13969C938E93B8
:1009F00012979A01AB0167E0220F331F441F551F66
:100A00006A95D1F783E08C930DC0220F331F441FEA
:100A1000551F12968D919C911397019713969C9355
:100A20008E931297203080E0380780E0480780E4FA
:100A3000580758F314962D933D934D935C93179755
:100A400008952F3F310579F4411551056105710570
:100A500019F484E08C93089564FF03C081E08C93C3
:100A600012C01C9210C02F57304013963C932E9307
:100A7000129783E08C9387E0440F551F661F771F02
:100A80008A95D1F7706414964D935D936D937C9322
:100A9000179708951F93DC01FB019C91923008F495
:100AA00047C08081823008F443C0943051F41196DD
:100AB0001C91843099F58181682F70E0611B710968
:100AC0003FC0843021F0923031F48230B9F181811D
:100AD000882389F12DC011961C9111978230F1F075
:100AE00081811817D9F412962D913C911397828128
:100AF00093818217930794F028173907BCF0149656
:100B00008D919D910D90BC91A02D248135814681C0
:100B10005781281739074A075B0718F4112341F05A
:100B20000AC082179307A407B50740F4112319F0F0
:100B300061E070E005C06FEF7FEF02C060E070E041
:100B4000CB011F910895DF93CF93CDB7DEB7EAE3D2
:100B5000F0E08FEF8083E7E3F0E08FEF8083E4E362
:100B6000F0E08FEF8083E1E3F0E08AEB8083EBE35A
:100B7000F0E01082E8E3F0E080EF8083E5E3F0E06E
:100B80001082E2E3F0E01082CF91DF910895DF93CD
:100B9000CF9300D000D000D0CDB7DEB78A836B836F
:100BA0004C8381E089838A81843008F0DDC08B81A9
:100BB000883008F0D9C08C81882321F08C81813065
:100BC00009F0D2C08A81282F30E03E832D838D81A9
:100BD0009E818130910509F443C02D813E812230F0
:100BE00031052CF48D819E81009771F0BEC02D815E
:100BF0003E812230310509F45FC08D819E818330B2
:100C0000910509F485C0B1C08C818823A9F4AAE3B9
:100C1000B0E0EAE3F0E08081482F8B81282F30E0BC
:100C200081E090E0022E02C0880F991F0A94E2F73B
:100C3000809584238C9399C0AAE3B0E0EAE3F0E0C6
:100C40008081482F8B81282F30E081E090E0022EB8
:100C500002C0880F991F0A94E2F7842B8C9385C0F9
:100C60008C818823A9F4A7E3B0E0E7E3F0E080817A
:100C7000482F8B81282F30E081E090E0022E02C0C7
:100C8000880F991F0A94E2F7809584238C936DC096
:100C9000A7E3B0E0E7E3F0E08081482F8B81282FC5
:100CA00030E081E090E0022E02C0880F991F0A9484
:100CB000E2F7842B8C9359C08C818823A9F4A4E398
:100CC000B0E0E4E3F0E08081482F8B81282F30E012
:100CD00081E090E0022E02C0880F991F0A94E2F78B
:100CE000809584238C9341C0A4E3B0E0E4E3F0E07A
:100CF0008081482F8B81282F30E081E090E0022E08
:100D000002C0880F991F0A94E2F7842B8C932DC0A0
:100D10008C818823A9F4A1E3B0E0E1E3F0E08081D5
:100D2000482F8B81282F30E081E090E0022E02C016
:100D3000880F991F0A94E2F7809584238C9315C03D
:100D4000A1E3B0E0E1E3F0E08081482F8B81282F20
:100D500030E081E090E0022E02C0880F991F0A94D3
:100D6000E2F7842B8C9301C01982898126960FB6F5
:100D7000F894DEBF0FBECDBFCF91DF910895DF9312
:100D8000CF9300D000D000D0CDB7DEB78A836B837D
:100D90004C8381E089838A81843008F0DDC08B81B7
:100DA000883008F0D9C08C81882321F08C81813073
:100DB00009F0D2C08A81282F30E03E832D838D81B7
:100DC0009E818130910509F443C02D813E812230FE
:100DD00031052CF48D819E81009771F0BEC02D816C
:100DE0003E812230310509F45FC08D819E818330C0
:100DF000910509F485C0B1C08C818823A9F4ABE3C7
:100E0000B0E0EBE3F0E08081482F8B81282F30E0C9
:100E100081E090E0022E02C0880F991F0A94E2F749
:100E2000809584238C9399C0ABE3B0E0EBE3F0E0D2
:100E30008081482F8B81282F30E081E090E0022EC6
:100E400002C0880F991F0A94E2F7842B8C9385C007
:100E50008C818823A9F4A8E3B0E0E8E3F0E0808186
:100E6000482F8B81282F30E081E090E0022E02C0D5
:100E7000880F991F0A94E2F7809584238C936DC0A4
:100E8000A8E3B0E0E8E3F0E08081482F8B81282FD1
:100E900030E081E090E0022E02C0880F991F0A9492
:100EA000E2F7842B8C9359C08C818823A9F4A5E3A5
:100EB000B0E0E5E3F0E08081482F8B81282F30E01F
:100EC00081E090E0022E02C0880F991F0A94E2F799
:100ED000809584238C9341C0A5E3B0E0E5E3F0E086
:100EE0008081482F8B81282F30E081E090E0022E16
:100EF00002C0880F991F0A94E2F7842B8C932DC0AF
:100F00008C818823A9F4A2E3B0E0E2E3F0E08081E1
:100F1000482F8B81282F30E081E090E0022E02C024
:100F2000880F991F0A94E2F7809584238C9315C04B
:100F3000A2E3B0E0E2E3F0E08081482F8B81282F2C
:100F400030E081E090E0022E02C0880F991F0A94E1
:100F5000E2F7842B8C9301C01982898126960FB603
:100F6000F894DEBF0FBECDBFCF91DF910895DF9320
:100F7000CF93CDB7DEB728970FB6F894DEBF0FBE7C
:100F8000CDBF8B836C835E834D8381E08A838B81AD
:100F9000843008F09FC08C81883008F09BC08D8120
:100FA0009E81009709F496C08B81282F30E0388706
:100FB0002F834F81588541305105A9F18F81988544
:100FC0008230910534F42F8138852115310571F077
:100FD00082C04F8158854230510509F441C08F814C
:100FE00098858330910509F458C075C0E9E3F0E0B5
:100FF0008081282F30E08C81882F90E0A90102C0E9
:10100000559547958A95E2F7CA0181708983898150
:10101000813029F4ED81FE8181E080835CC0ED8127
:10102000FE81108258C0E6E3F0E08081282F30E096
:101030008C81882F90E0A90102C0559547958A952B
:10104000E2F7CA01817089838981813029F4ED81B9
:10105000FE8181E080833FC0ED81FE8110823BC034
:10106000E3E3F0E08081282F30E08C81882F90E04E
:10107000A90102C0559547958A95E2F7CA0181708A
:1010800089838981813029F4ED81FE8181E080832B
:1010900022C0ED81FE8110821EC0E0E3F0E080817D
:1010A000282F30E08C81882F90E0A90102C055954F
:1010B00047958A95E2F7CA018170898389818130D9
:1010C00029F4ED81FE8181E0808305C0ED81FE8100
:1010D000108201C01A828A8128960FB6F894DEBF6A
:1010E0000FBECDBFCF91DF910895DF93CF9300D096
:1010F00000D00F92CDB7DEB78A836B8381E08983FE
:101100008A81843008F056C08B81882321F08B813E
:10111000813009F04FC08A81282F30E03D832C8335
:101120008C819D818130910509F12C813D81223096
:1011300031052CF48C819D81009761F03CC02C819D
:101140003D8122303105F1F08C819D818330910504
:1011500029F131C08B81813029F4EAE3F0E08FEF8F
:10116000808329C0EAE3F0E0108225C08B818130C2
:1011700029F4E7E3F0E08FEF80831DC0E7E3F0E0C0
:10118000108219C08B81813029F4E4E3F0E08FEF05
:10119000808311C0E4E3F0E010820DC08B818130C8
:1011A00029F4E1E3F0E08FEF808305C0E1E3F0E0B4
:1011B000108201C0198289810F900F900F900F90BB
:1011C0000F90CF91DF910895DF93CF9300D000D09F
:1011D0000F92CDB7DEB78A836B8381E089838A81E2
:1011E000843098F58A81282F30E03D832C838C81D0
:1011F0009D8181309105D1F02C813D8122303105D6
:101200002CF48C819D81009761F020C02C813D8160
:101210002230310581F08C819D818330910581F0F0
:1012200015C0EBE3F0E08B81808310C0E8E3F0E0D1
:101230008B8180830BC0E5E3F0E08B81808306C067
:10124000E2E3F0E08B81808301C0198289810F90F5
:101250000F900F900F900F90CF91DF910895DF9333
:10126000CF9300D000D000D0CDB7DEB78A837C8387
:101270006B8381E089838A81843008F03FC08B8151
:101280009C810097D9F18A81282F30E03E832D83FD
:101290008D819E8181309105E1F02D813E8122304A
:1012A00031052CF48D819E81009761F028C02D813D
:1012B0003E8122303105A1F08D819E8183309105E0
:1012C000B1F01DC0E9E3F0E08081EB81FC81808317
:1012D00016C0E6E3F0E08081EB81FC8180830FC0E3
:1012E000E3E3F0E08081EB81FC81808308C0E0E3F0
:1012F000F0E08081EB81FC81808301C019828981CB
:1013000026960FB6F894DEBF0FBECDBFCF91DF910A
:101310000895DF93CF93CDB7DEB7AFE5B0E0EFE54B
:10132000F0E0808180688C93CF91DF910895DF9306
:10133000CF93CDB7DEB7AFE5B0E0EFE5F0E0808169
:101340008F778C93CF91DF910895DF93CF93CDB7B3
:10135000DEB7E9E2F0E083E38083AAE2B0E0EAE20C
:10136000F0E0808188608C93AAE2B0E0EAE2F0E0ED
:10137000808180618C93E0E4F0E086E88083CF9107
:10138000DF910895DF93CF930F92CDB7DEB78983B6
:10139000EBE2F0E08081829586958770882F90E05F
:1013A000817090700097A1F3ECE2F0E08981808376
:1013B0000F90CF91DF910895DF93CF93CDB7DEB734
:1013C000EBE2F0E080818823DCF7ECE2F0E0808162
:1013D000CF91DF910895DF93CF9300D000D0CDB7A8
:1013E000DEB79B838A836C8319820EC08981282F84
:1013F00030E08A819B81FC01E20FF31F80810E9413
:10140000C20989818F5F898399818C81981770F3D4
:101410000F900F900F900F90CF91DF9108950F9341
:101420001F93DF93CF9300D000D0CDB7DEB79B835F
:101430008A836C8319820FC08981282F30E08A81CA
:101440009B818C01020F131F0E94DC09F80180832D
:1014500089818F5F898399818C81981768F30F90B8
:101460000F900F900F90CF91DF911F910F910895E2
:10147000DF93CF9300D000D00F92CDB7DEB79A8321
:1014800089836B835D834C8381E0809385008981B0
:101490009A8190937E0080937D008B81809384005D
:1014A0008C819D819093800080937F000E948909A8
:1014B000EBE2F0E08081829586958770882F90E03E
:1014C000817090700097A1F3ACE2B0E020917D00B4
:1014D00030917E0080917C00882F90E0F901E80F28
:1014E000F91F80818C93AAE2B0E0EAE2F0E080810B
:1014F00080628C930F900F900F900F900F90CF9170
:10150000DF910895DF93CF9300D000D00F92CDB735
:10151000DEB79A8389836B835D834C8381E08093FC
:1015200085008B818093840089819A8190937E00CD
:1015300080937D008C819D819093820080938100B7
:101540000E948909EBE2F0E080818823DCF720919A
:101550007D0030917E0080917C00882F90E0D90141
:10156000A80FB91FECE2F0E080818C93AAE2B0E012
:10157000EAE2F0E0808180688C930F900F900F90EA
:101580000F900F90CF91DF9108951F920F920FB699
:101590000F9211242F933F934F935F936F937F93F9
:1015A0008F939F93AF93BF93EF93FF93DF93CF936B
:1015B000CDB7DEB780917C008F5F80937C009091E7
:1015C0007C0080918400981779F4AAE2B0E0EAE206
:1015D000F0E080818F7D8C9310928500E0917F00F8
:1015E000F091800009951BC0EBE2F0E080818295CC
:1015F00086958770882F90E0817090700097A1F396
:10160000ACE2B0E020917D0030917E0080917C00C2
:10161000882F90E0F901E80FF91F80818C93CF911A
:10162000DF91FF91EF91BF91AF919F918F917F914A
:101630006F915F914F913F912F910F900FBE0F903F
:101640001F9018951F920F920FB60F9211242F938F
:101650003F934F935F936F937F938F939F93AF933A
:10166000BF93EF93FF93DF93CF93CDB7DEB7809116
:101670007C008F5F80937C0090917C00809184003F
:10168000981779F4AAE2B0E0EAE2F0E080818F777F
:101690008C9310928500E0918100F0918200099571
:1016A00014C0EBE2F0E080818823DCF720917D001C
:1016B00030917E0080917C00882F90E0D901A80FA6
:1016C000B91FECE2F0E080818C93CF91DF91FF9124
:1016D000EF91BF91AF919F918F917F916F915F91AA
:1016E0004F913F912F910F900FBE0F901F90189523
:1016F000DF93CF93CDB7DEB7A7970FB6F894DEBFD1
:101700000FBECDBF0E94A3050E94A509CE010F9672
:101710009CA38BA3A0E6B0E0BEA3ADA3B6E0BFA39D
:10172000EDA1FEA100808DA19EA101969EA38DA397
:10173000ABA1BCA10C92EBA1FCA13196FCA3EBA345
:10174000FFA1F150FFA38FA1882351F78EE0FE0186
:101750007596DF01982F1D929A95E9F7CE010F96A5
:1017600029E23CE064E1A9010E94380A80E090E0AF
:10177000AAEFB3E48B879C87AD87BE876B857C859A
:101780008D859E8520E030E04AEF54E40E941F02E0
:10179000DC01CB018F839887A987BA876F81788511
:1017A00089859A8520E030E040E85FE30E94790374
:1017B00088232CF481E090E09E838D833FC06F816D
:1017C000788589859A8520E03FEF4FE757E40E94AE
:1017D000190318164CF56B857C858D859E8520E058
:1017E00030E040E251E40E941F02DC01CB01BC0169
:1017F000CD010E944900DC01CB019E838D830FC087
:1018000088EC90E09C838B838B819C810197F1F71E
:101810009C838B838D819E8101979E838D838D8197
:101820009E81009769F79ACF6F81788589859A851F
:101830000E944900DC01CB019E838D838D819E81B6
:101840009A83898389819A810197F1F79A838983A1
:1018500085CFDF93CF93CDB7DEB781E08093830050
:10186000CF91DF9108952F923F924F925F926F92A6
:101870007F928F929F92AF92BF92CF92DF92EF9220
:10188000FF920F931F93CF93DF93CDB7DEB7CA1BA1
:10189000DB0B0FB6F894DEBF0FBECDBF09942A88CC
:1018A000398848885F846E847D848C849B84AA8474
:1018B000B984C884DF80EE80FD800C811B81AA8101
:1018C000B981CE0FD11D0FB6F894DEBF0FBECDBFCC
:0818D000ED010895F894FFCF2B
:1018D80061736D61610000000000000000000000FD
:0C18E800000000000000000000000000F4
:00000001FF
