:100000000C942A000C9434000C9434000C943400AA
:100010000C9434000C9434000C9434000C94340090
:100020000C9434000C9434000C9434000C94340080
:100030000C9434000C9434000C9434000C94340070
:100040000C9434000C9434000C9434000C94340060
:100050000C94340011241FBECFE5D8E0DEBFCDBF25
:100060000E9468040C9474040C940000DF93CF93F6
:10007000CDB7DEB7EAE3F0E08FEF8083E7E3F0E0AF
:100080008FEF8083E4E3F0E08FEF8083E1E3F0E043
:100090008BEB8083EBE3F0E01082E8E3F0E080EFAD
:1000A0008083E5E3F0E01082E2E3F0E01082CF919C
:1000B000DF910895DF93CF9300D000D000D0CDB76B
:1000C000DEB78A836B834C8381E089838A818430A5
:1000D00008F0DDC08B81883008F0D9C08C8188237E
:1000E00021F08C81813009F0D2C08A81282F30E044
:1000F0003E832D838D819E818130910509F443C01B
:100100002D813E81223031052CF48D819E81009716
:1001100071F0BEC02D813E812230310509F45FC0EF
:100120008D819E818330910509F485C0B1C08C8199
:100130008823A9F4AAE3B0E0EAE3F0E08081482F45
:100140008B81282F30E081E090E0022E02C0880FE2
:10015000991F0A94E2F7809584238C9399C0AAE3AF
:10016000B0E0EAE3F0E08081482F8B81282F30E077
:1001700081E090E0022E02C0880F991F0A94E2F7F6
:10018000842B8C9385C08C818823A9F4A7E3B0E0ED
:10019000E7E3F0E08081482F8B81282F30E081E079
:1001A00090E0022E02C0880F991F0A94E2F7809512
:1001B00084238C936DC0A7E3B0E0E7E3F0E0808197
:1001C000482F8B81282F30E081E090E0022E02C082
:1001D000880F991F0A94E2F7842B8C9359C08C8165
:1001E0008823A9F4A4E3B0E0E4E3F0E08081482FA1
:1001F0008B81282F30E081E090E0022E02C0880F32
:10020000991F0A94E2F7809584238C9341C0A4E35C
:10021000B0E0E4E3F0E08081482F8B81282F30E0CC
:1002200081E090E0022E02C0880F991F0A94E2F745
:10023000842B8C932DC08C818823A9F4A1E3B0E09A
:10024000E1E3F0E08081482F8B81282F30E081E0CE
:1002500090E0022E02C0880F991F0A94E2F7809561
:1002600084238C9315C0A1E3B0E0E1E3F0E080814A
:10027000482F8B81282F30E081E090E0022E02C0D1
:10028000880F991F0A94E2F7842B8C9301C019827E
:10029000898126960FB6F894DEBF0FBECDBFCF91F1
:1002A000DF910895DF93CF9300D000D000D0CDB779
:1002B000DEB78A836B834C8381E089838A818430B3
:1002C00008F0DDC08B81883008F0D9C08C8188238C
:1002D00021F08C81813009F0D2C08A81282F30E052
:1002E0003E832D838D819E818130910509F443C029
:1002F0002D813E81223031052CF48D819E81009725
:1003000071F0BEC02D813E812230310509F45FC0FD
:100310008D819E818330910509F485C0B1C08C81A7
:100320008823A9F4ABE3B0E0EBE3F0E08081482F51
:100330008B81282F30E081E090E0022E02C0880FF0
:10034000991F0A94E2F7809584238C9399C0ABE3BC
:10035000B0E0EBE3F0E08081482F8B81282F30E084
:1003600081E090E0022E02C0880F991F0A94E2F704
:10037000842B8C9385C08C818823A9F4A8E3B0E0FA
:10038000E8E3F0E08081482F8B81282F30E081E086
:1003900090E0022E02C0880F991F0A94E2F7809520
:1003A00084238C936DC0A8E3B0E0E8E3F0E08081A3
:1003B000482F8B81282F30E081E090E0022E02C090
:1003C000880F991F0A94E2F7842B8C9359C08C8173
:1003D0008823A9F4A5E3B0E0E5E3F0E08081482FAD
:1003E0008B81282F30E081E090E0022E02C0880F40
:1003F000991F0A94E2F7809584238C9341C0A5E36A
:10040000B0E0E5E3F0E08081482F8B81282F30E0D9
:1004100081E090E0022E02C0880F991F0A94E2F753
:10042000842B8C932DC08C818823A9F4A2E3B0E0A7
:10043000E2E3F0E08081482F8B81282F30E081E0DB
:1004400090E0022E02C0880F991F0A94E2F780956F
:1004500084238C9315C0A2E3B0E0E2E3F0E0808156
:10046000482F8B81282F30E081E090E0022E02C0DF
:10047000880F991F0A94E2F7842B8C9301C019828C
:10048000898126960FB6F894DEBF0FBECDBFCF91FF
:10049000DF910895DF93CF93CDB7DEB728970FB6DE
:1004A000F894DEBF0FBECDBF8B836C835E834D831C
:1004B00081E08A838B81843008F09FC08C818830F2
:1004C00008F09BC08D819E81009709F496C08B81B6
:1004D000282F30E038872F834F81588541305105D0
:1004E000A9F18F8198858230910534F42F81388568
:1004F0002115310571F082C04F8158854230510578
:1005000009F441C08F8198858330910509F458C062
:1005100075C0E9E3F0E08081282F30E08C81882FDE
:1005200090E0A90102C0559547958A95E2F7CA0166
:10053000817089838981813029F4ED81FE8181E098
:1005400080835CC0ED81FE81108258C0E6E3F0E05C
:100550008081282F30E08C81882F90E0A90102C093
:10056000559547958A95E2F7CA01817089838981FB
:10057000813029F4ED81FE8181E080833FC0ED81EF
:10058000FE8110823BC0E3E3F0E08081282F30E061
:100590008C81882F90E0A90102C0559547958A95D6
:1005A000E2F7CA01817089838981813029F4ED8164
:1005B000FE8181E0808322C0ED81FE8110821EC019
:1005C000E0E3F0E08081282F30E08C81882F90E0FC
:1005D000A90102C0559547958A95E2F7CA01817035
:1005E00089838981813029F4ED81FE8181E08083D6
:1005F00005C0ED81FE81108201C01A828A81289691
:100600000FB6F894DEBF0FBECDBFCF91DF91089536
:10061000DF93CF9300D000D00F92CDB7DEB78A839F
:100620006B8381E089838A81843008F056C08B8196
:10063000882321F08B81813009F04FC08A81282FD7
:1006400030E03D832C838C819D818130910509F1BF
:100650002C813D81223031052CF48C819D810097C5
:1006600061F03CC02C813D8122303105F1F08C815C
:100670009D818330910529F131C08B81813029F42E
:10068000EAE3F0E08FEF808329C0EAE3F0E0108234
:1006900025C08B81813029F4E7E3F0E08FEF808380
:1006A0001DC0E7E3F0E0108219C08B81813029F48E
:1006B000E4E3F0E08FEF808311C0E4E3F0E0108228
:1006C0000DC08B81813029F4E1E3F0E08FEF80836E
:1006D00005C0E1E3F0E0108201C0198289810F902A
:1006E0000F900F900F900F90CF91DF910895DF93AF
:1006F000CF9300D000D00F92CDB7DEB78A836B8343
:1007000081E089838A81843098F58A81282F30E0BE
:100710003D832C838C819D8181309105D1F02C818A
:100720003D81223031052CF48C819D81009761F050
:1007300020C02C813D812230310581F08C819D814A
:100740008330910581F015C0EBE3F0E08B8180836D
:1007500010C0E8E3F0E08B8180830BC0E5E3F0E0BC
:100760008B81808306C0E2E3F0E08B81808301C04F
:10077000198289810F900F900F900F900F90CF9159
:10078000DF910895DF93CF9300D000D000D0CDB794
:10079000DEB78A837C836B8381E089838A8184309E
:1007A00008F03FC08B819C810097D9F18A81282F66
:1007B00030E03E832D838D819E8181309105E1F073
:1007C0002D813E81223031052CF48D819E81009750
:1007D00061F028C02D813E8122303105A1F08D814C
:1007E0009E8183309105B1F01DC0E9E3F0E0808186
:1007F000EB81FC81808316C0E6E3F0E08081EB8131
:10080000FC8180830FC0E3E3F0E08081EB81FC8119
:10081000808308C0E0E3F0E08081EB81FC8180838D
:1008200001C01982898126960FB6F894DEBF0FBEEB
:10083000CDBFCF91DF910895DF93CF93CDB7DEB7D2
:10084000E9E2F0E087E68083AAE2B0E0EAE2F0E0E5
:10085000808188608C93AAE2B0E0EAE2F0E08081D7
:1008600080618C93E0E4F0E080E88083CF91DF91B9
:100870000895DF93CF930F92CDB7DEB78983EBE274
:10088000F0E08081829586958770882F90E0817056
:1008900090700097A1F3ECE2F0E0898180830F90E3
:1008A000CF91DF910895DF93CF93CDB7DEB7EBE221
:1008B000F0E0808182958F70882F90E08170907039
:1008C0000097A9F3ECE2F0E08081CF91DF910895E9
:1008D000DF93CF93CDB7DEB70E9436000E941C0491
:0C08E00081E00E943904FFCFF894FFCFA4
:00000001FF
